{
  "contractName": "AddProduct",
  "abi": [
    {
      "anonymous": false,
      "inputs": [
        {
          "indexed": false,
          "internalType": "uint256",
          "name": "id",
          "type": "uint256"
        },
        {
          "indexed": false,
          "internalType": "string",
          "name": "name",
          "type": "string"
        },
        {
          "indexed": false,
          "internalType": "uint256",
          "name": "price",
          "type": "uint256"
        },
        {
          "indexed": false,
          "internalType": "uint256",
          "name": "count",
          "type": "uint256"
        },
        {
          "indexed": false,
          "internalType": "string",
          "name": "category",
          "type": "string"
        },
        {
          "components": [
            {
              "internalType": "string",
              "name": "company",
              "type": "string"
            },
            {
              "internalType": "string",
              "name": "description",
              "type": "string"
            }
          ],
          "indexed": false,
          "internalType": "struct AddProduct.Desc",
          "name": "details",
          "type": "tuple"
        },
        {
          "indexed": false,
          "internalType": "address payable",
          "name": "seller",
          "type": "address"
        },
        {
          "indexed": false,
          "internalType": "bool",
          "name": "active",
          "type": "bool"
        }
      ],
      "name": "ProductCreated",
      "type": "event"
    },
    {
      "constant": true,
      "inputs": [
        {
          "internalType": "uint256",
          "name": "",
          "type": "uint256"
        }
      ],
      "name": "productList",
      "outputs": [
        {
          "internalType": "uint256",
          "name": "id",
          "type": "uint256"
        },
        {
          "internalType": "string",
          "name": "name",
          "type": "string"
        },
        {
          "internalType": "uint256",
          "name": "price",
          "type": "uint256"
        },
        {
          "internalType": "uint256",
          "name": "count",
          "type": "uint256"
        },
        {
          "internalType": "string",
          "name": "category",
          "type": "string"
        },
        {
          "components": [
            {
              "internalType": "string",
              "name": "company",
              "type": "string"
            },
            {
              "internalType": "string",
              "name": "description",
              "type": "string"
            }
          ],
          "internalType": "struct AddProduct.Desc",
          "name": "details",
          "type": "tuple"
        },
        {
          "internalType": "address payable",
          "name": "seller",
          "type": "address"
        },
        {
          "internalType": "bool",
          "name": "active",
          "type": "bool"
        }
      ],
      "payable": false,
      "stateMutability": "view",
      "type": "function"
    },
    {
      "constant": true,
      "inputs": [],
      "name": "totalProduct",
      "outputs": [
        {
          "internalType": "uint256",
          "name": "",
          "type": "uint256"
        }
      ],
      "payable": false,
      "stateMutability": "view",
      "type": "function"
    },
    {
      "constant": false,
      "inputs": [
        {
          "internalType": "string",
          "name": "_name",
          "type": "string"
        },
        {
          "internalType": "uint256",
          "name": "_price",
          "type": "uint256"
        },
        {
          "internalType": "uint256",
          "name": "_count",
          "type": "uint256"
        },
        {
          "internalType": "string",
          "name": "_category",
          "type": "string"
        },
        {
          "internalType": "string",
          "name": "_company",
          "type": "string"
        },
        {
          "internalType": "string",
          "name": "_desc",
          "type": "string"
        }
      ],
      "name": "createProduct",
      "outputs": [],
      "payable": false,
      "stateMutability": "nonpayable",
      "type": "function"
    },
    {
      "constant": false,
      "inputs": [
        {
          "internalType": "uint256",
          "name": "_id",
          "type": "uint256"
        },
        {
          "internalType": "uint256",
          "name": "_price",
          "type": "uint256"
        }
      ],
      "name": "changePrice",
      "outputs": [],
      "payable": false,
      "stateMutability": "nonpayable",
      "type": "function"
    },
    {
      "constant": false,
      "inputs": [
        {
          "internalType": "uint256",
          "name": "_id",
          "type": "uint256"
        },
        {
          "internalType": "uint256",
          "name": "_count",
          "type": "uint256"
        }
      ],
      "name": "changeCount",
      "outputs": [],
      "payable": false,
      "stateMutability": "nonpayable",
      "type": "function"
    },
    {
      "constant": false,
      "inputs": [
        {
          "internalType": "uint256",
          "name": "_id",
          "type": "uint256"
        },
        {
          "internalType": "uint256",
          "name": "_decCount",
          "type": "uint256"
        }
      ],
      "name": "decreaseCount",
      "outputs": [],
      "payable": false,
      "stateMutability": "nonpayable",
      "type": "function"
    },
    {
      "constant": false,
      "inputs": [
        {
          "internalType": "uint256",
          "name": "_id",
          "type": "uint256"
        },
        {
          "internalType": "uint256",
          "name": "_incCount",
          "type": "uint256"
        }
      ],
      "name": "increaseCount",
      "outputs": [],
      "payable": false,
      "stateMutability": "nonpayable",
      "type": "function"
    }
  ],
  "bytecode": "0x60806040526000805534801561001457600080fd5b506114a1806100246000396000f3fe608060405234801561001057600080fd5b506004361061007d5760003560e01c80636628b6011161005b5780636628b601146100f35780637fa022971461010f578063ad0436881461012b578063b3de019c146101475761007d565b806324b8ab2c14610082578063528c87d21461009e578063566bceef146100d5575b600080fd5b61009c60048036036100979190810190610cec565b610163565b005b6100b860048036036100b39190810190610dd5565b6103ee565b6040516100cc989796959493929190611288565b60405180910390f35b6100dd6106e1565b6040516100ea91906111da565b60405180910390f35b61010d60048036036101089190810190610dfe565b6106e7565b005b61012960048036036101249190810190610dfe565b61086f565b005b61014560048036036101409190810190610dfe565b61093e565b005b610161600480360361015c9190810190610dfe565b610a65565b005b60008651116101a7576040517f08c379a000000000000000000000000000000000000000000000000000000000815260040161019e9061113a565b60405180910390fd5b600085116101ea576040517f08c379a00000000000000000000000000000000000000000000000000000000081526004016101e19061115a565b60405180910390fd5b6000808154809291906001019190505550600060019050600085141561020f57600090505b610217610bc4565b604051806040016040528085815260200184815250905060405180610100016040528060005481526020018981526020018881526020018781526020018681526020018281526020013373ffffffffffffffffffffffffffffffffffffffff16815260200183151581525060016000805481526020019081526020016000206000820151816000015560208201518160010190805190602001906102bc929190610bde565b50604082015181600201556060820151816003015560808201518160040190805190602001906102ed929190610bde565b5060a0820151816005016000820151816000019080519060200190610313929190610bde565b506020820151816001019080519060200190610330929190610bde565b50505060c08201518160070160006101000a81548173ffffffffffffffffffffffffffffffffffffffff021916908373ffffffffffffffffffffffffffffffffffffffff16021790555060e08201518160070160146101000a81548160ff0219169083151502179055509050507fb82642ef39710907a5c5c2d8dd7eedc015b18b353ea08777d848817298908a16600054898989898633896040516103dc9897969594939291906111f5565b60405180910390a15050505050505050565b6001602052806000526040600020600091509050806000015490806001018054600181600116156101000203166002900480601f0160208091040260200160405190810160405280929190818152602001828054600181600116156101000203166002900480156104a05780601f10610475576101008083540402835291602001916104a0565b820191906000526020600020905b81548152906001019060200180831161048357829003601f168201915b505050505090806002015490806003015490806004018054600181600116156101000203166002900480601f01602080910402602001604051908101604052809291908181526020018280546001816001161561010002031660029004801561054a5780601f1061051f5761010080835404028352916020019161054a565b820191906000526020600020905b81548152906001019060200180831161052d57829003601f168201915b50505050509080600501604051806040016040529081600082018054600181600116156101000203166002900480601f0160208091040260200160405190810160405280929190818152602001828054600181600116156101000203166002900480156105f85780601f106105cd576101008083540402835291602001916105f8565b820191906000526020600020905b8154815290600101906020018083116105db57829003601f168201915b50505050508152602001600182018054600181600116156101000203166002900480601f01602080910402602001604051908101604052809291908181526020018280546001816001161561010002031660029004801561069a5780601f1061066f5761010080835404028352916020019161069a565b820191906000526020600020905b81548152906001019060200180831161067d57829003601f168201915b505050505081525050908060070160009054906101000a900473ffffffffffffffffffffffffffffffffffffffff16908060070160149054906101000a900460ff16905088565b60005481565b6000600160008481526020019081526020016000206000015411610740576040517f08c379a00000000000000000000000000000000000000000000000000000000081526004016107379061111a565b60405180910390fd5b3373ffffffffffffffffffffffffffffffffffffffff166001600084815260200190815260200160002060070160009054906101000a900473ffffffffffffffffffffffffffffffffffffffff1673ffffffffffffffffffffffffffffffffffffffff16146107e4576040517f08c379a00000000000000000000000000000000000000000000000000000000081526004016107db9061119a565b60405180910390fd5b806001600084815260200190815260200160002060030181905550600081141561083c5760006001600084815260200190815260200160002060070160146101000a81548160ff02191690831515021790555061086b565b600180600084815260200190815260200160002060070160146101000a81548160ff0219169083151502179055505b5050565b60006001600084815260200190815260200160002060000154116108c8576040517f08c379a00000000000000000000000000000000000000000000000000000000081526004016108bf9061111a565b60405180910390fd5b80600160008481526020019081526020016000206003016000828254019250508190555060006001600084815260200190815260200160002060030154111561093a57600180600084815260200190815260200160002060070160146101000a81548160ff0219169083151502179055505b5050565b6000600160008481526020019081526020016000206000015411610997576040517f08c379a000000000000000000000000000000000000000000000000000000000815260040161098e9061111a565b60405180910390fd5b806001600084815260200190815260200160002060030154116109ef576040517f08c379a00000000000000000000000000000000000000000000000000000000081526004016109e69061117a565b60405180910390fd5b8060016000848152602001908152602001600020600301600082825403925050819055506000600160008481526020019081526020016000206003015411610a615760006001600084815260200190815260200160002060070160146101000a81548160ff0219169083151502179055505b5050565b6000600160008481526020019081526020016000206000015411610abe576040517f08c379a0000000000000000000000000000000000000000000000000000000008152600401610ab59061111a565b60405180910390fd5b60008111610b01576040517f08c379a0000000000000000000000000000000000000000000000000000000008152600401610af8906111ba565b60405180910390fd5b3373ffffffffffffffffffffffffffffffffffffffff166001600084815260200190815260200160002060070160009054906101000a900473ffffffffffffffffffffffffffffffffffffffff1673ffffffffffffffffffffffffffffffffffffffff1614610ba5576040517f08c379a0000000000000000000000000000000000000000000000000000000008152600401610b9c9061119a565b60405180910390fd5b8060016000848152602001908152602001600020600201819055505050565b604051806040016040528060608152602001606081525090565b828054600181600116156101000203166002900490600052602060002090601f016020900481019282601f10610c1f57805160ff1916838001178555610c4d565b82800160010185558215610c4d579182015b82811115610c4c578251825591602001919060010190610c31565b5b509050610c5a9190610c5e565b5090565b610c8091905b80821115610c7c576000816000905550600101610c64565b5090565b90565b600082601f830112610c9457600080fd5b8135610ca7610ca282611348565b61131b565b91508082526020830160208301858383011115610cc357600080fd5b610cce8382846113f4565b50505092915050565b600081359050610ce681611447565b92915050565b60008060008060008060c08789031215610d0557600080fd5b600087013567ffffffffffffffff811115610d1f57600080fd5b610d2b89828a01610c83565b9650506020610d3c89828a01610cd7565b9550506040610d4d89828a01610cd7565b945050606087013567ffffffffffffffff811115610d6a57600080fd5b610d7689828a01610c83565b935050608087013567ffffffffffffffff811115610d9357600080fd5b610d9f89828a01610c83565b92505060a087013567ffffffffffffffff811115610dbc57600080fd5b610dc889828a01610c83565b9150509295509295509295565b600060208284031215610de757600080fd5b6000610df584828501610cd7565b91505092915050565b60008060408385031215610e1157600080fd5b6000610e1f85828601610cd7565b9250506020610e3085828601610cd7565b9150509250929050565b610e43816113ac565b82525050565b610e52816113be565b82525050565b6000610e638261137f565b610e6d818561139b565b9350610e7d818560208601611403565b610e8681611436565b840191505092915050565b6000610e9c82611374565b610ea6818561138a565b9350610eb6818560208601611403565b610ebf81611436565b840191505092915050565b6000610ed582611374565b610edf818561139b565b9350610eef818560208601611403565b610ef881611436565b840191505092915050565b6000610f1060168361139b565b91507f50726f6475637420646f6573206e6f74206578697374000000000000000000006000830152602082019050919050565b6000610f5060148361139b565b91507f4e616d652043616e6e6f7420626520456d7074790000000000000000000000006000830152602082019050919050565b6000610f9060118361139b565b91507f5072696365206d757374206265203e20300000000000000000000000000000006000830152602082019050919050565b6000610fd060128361139b565b91507f436f756e7420697320746f6f206c6172676500000000000000000000000000006000830152602082019050919050565b6000611010601c8361139b565b91507f4f6e6c792073656c6c65722063616e20757064617465207072696365000000006000830152602082019050919050565b600061105060138361139b565b91507f50726963652053686f756c64206265203e2030000000000000000000000000006000830152602082019050919050565b600060408301600083015184820360008601526110a08282610e91565b915050602083015184820360208601526110ba8282610e91565b9150508091505092915050565b600060408301600083015184820360008601526110e48282610e91565b915050602083015184820360208601526110fe8282610e91565b9150508091505092915050565b611114816113ea565b82525050565b6000602082019050818103600083015261113381610f03565b9050919050565b6000602082019050818103600083015261115381610f43565b9050919050565b6000602082019050818103600083015261117381610f83565b9050919050565b6000602082019050818103600083015261119381610fc3565b9050919050565b600060208201905081810360008301526111b381611003565b9050919050565b600060208201905081810360008301526111d381611043565b9050919050565b60006020820190506111ef600083018461110b565b92915050565b60006101008201905061120b600083018b61110b565b818103602083015261121d818a610e58565b905061122c604083018961110b565b611239606083018861110b565b818103608083015261124b8187610e58565b905081810360a083015261125f8186611083565b905061126e60c0830185610e3a565b61127b60e0830184610e49565b9998505050505050505050565b60006101008201905061129e600083018b61110b565b81810360208301526112b0818a610eca565b90506112bf604083018961110b565b6112cc606083018861110b565b81810360808301526112de8187610eca565b905081810360a08301526112f281866110c7565b905061130160c0830185610e3a565b61130e60e0830184610e49565b9998505050505050505050565b6000604051905081810181811067ffffffffffffffff8211171561133e57600080fd5b8060405250919050565b600067ffffffffffffffff82111561135f57600080fd5b601f19601f8301169050602081019050919050565b600081519050919050565b600081519050919050565b600082825260208201905092915050565b600082825260208201905092915050565b60006113b7826113ca565b9050919050565b60008115159050919050565b600073ffffffffffffffffffffffffffffffffffffffff82169050919050565b6000819050919050565b82818337600083830152505050565b60005b83811015611421578082015181840152602081019050611406565b83811115611430576000848401525b50505050565b6000601f19601f8301169050919050565b611450816113ea565b811461145b57600080fd5b5056fea365627a7a723158207c42193bdc7fe43148ad7cfbc143ad40992a3d82d9384077a9f4c02358654e316c6578706572696d656e74616cf564736f6c63430005100040",
  "source": "pragma solidity ^0.5.0;\r\npragma experimental ABIEncoderV2;\r\n\r\ncontract AddProduct {\r\n    uint public totalProduct = 0;\r\n    mapping(uint => Product) public productList;\r\n\r\n    struct Product{\r\n        uint id;\r\n        string name;\r\n        uint price;\r\n        uint count;\r\n        string category;\r\n        Desc details;\r\n        address payable seller;\r\n        bool active;\r\n    }\r\n\r\n    struct Desc {\r\n        string company;\r\n        string description;\r\n    }\r\n\r\n    event ProductCreated(\r\n        uint id,\r\n        string name,\r\n        uint price,\r\n        uint count,\r\n        string category,\r\n        Desc details,\r\n        address payable seller,\r\n        bool active\r\n    );\r\n\r\n    function createProduct(string memory _name, uint _price,uint _count,string memory _category,string memory _company, string memory _desc) public {\r\n        require(bytes(_name).length > 0,\"Name Cannot be Empty\");\r\n        require(_price > 0, \"Price must be > 0\");\r\n        totalProduct ++;\r\n        bool _active = true;\r\n        if (_count == 0){\r\n            _active = false;\r\n        }\r\n        Desc memory _details = Desc(_company,_desc);\r\n\r\n        productList[totalProduct] = Product(totalProduct, _name, _price, _count, _category, _details, msg.sender, _active);\r\n        // Trigger an event\r\n        emit ProductCreated(totalProduct, _name, _price, _count, _category, _details, msg.sender, _active);\r\n    }\r\n\r\n    function changePrice(uint _id,uint _price) public{\r\n        require(productList[_id].id>0,\"Product does not exist\");\r\n        require(_price>0,\"Price Should be > 0\");\r\n        require(productList[_id].seller == msg.sender,\"Only seller can update price\");\r\n        productList[_id].price = _price;\r\n    }\r\n    function changeCount(uint _id,uint _count) public{\r\n        require(productList[_id].id>0,\"Product does not exist\");\r\n        require(productList[_id].seller == msg.sender,\"Only seller can update price\");\r\n        productList[_id].count = _count;\r\n        if (_count == 0){\r\n            productList[_id].active = false;\r\n        }\r\n        else{\r\n            productList[_id].active = true;\r\n        }\r\n    }\r\n\r\n    function decreaseCount(uint _id,uint _decCount) public{\r\n        require(productList[_id].id > 0,\"Product does not exist\");\r\n        require(productList[_id].count > _decCount,\"Count is too large\");\r\n        productList[_id].count -= _decCount;\r\n        if (productList[_id].count <= 0){\r\n            productList[_id].active = false;\r\n        }\r\n    }\r\n    function increaseCount(uint _id,uint _incCount) public{\r\n        require(productList[_id].id > 0,\"Product does not exist\");\r\n        productList[_id].count += _incCount;\r\n        if (productList[_id].count > 0){\r\n            productList[_id].active = true;\r\n        }\r\n    }\r\n}",
  "sourcePath": "E:\\Blockchain\\Shopchain\\contracts\\AddProduct.sol",
  "compiler": {
    "name": "solc",
    "version": "0.5.16+commit.9c3226ce.Emscripten.clang"
  },
  "schemaVersion": "3.1.0",
  "updatedAt": "2020-04-29T11:47:16.037Z",
  "networkType": "ethereum",
  "devdoc": {
    "methods": {}
  },
  "userdoc": {
    "methods": {}
  }
}