{
  "contractName": "AddProduct",
  "abi": [
    {
      "anonymous": false,
      "inputs": [
        {
          "indexed": false,
          "internalType": "uint256",
          "name": "productID",
          "type": "uint256"
        },
        {
          "indexed": false,
          "internalType": "string",
          "name": "name",
          "type": "string"
        },
        {
          "indexed": false,
          "internalType": "uint256",
          "name": "price",
          "type": "uint256"
        },
        {
          "indexed": false,
          "internalType": "uint256",
          "name": "count",
          "type": "uint256"
        },
        {
          "indexed": false,
          "internalType": "string",
          "name": "category",
          "type": "string"
        },
        {
          "components": [
            {
              "internalType": "string",
              "name": "company",
              "type": "string"
            },
            {
              "internalType": "string",
              "name": "description",
              "type": "string"
            }
          ],
          "indexed": false,
          "internalType": "struct AddProduct.Desc",
          "name": "details",
          "type": "tuple"
        },
        {
          "indexed": false,
          "internalType": "address payable",
          "name": "seller",
          "type": "address"
        },
        {
          "indexed": false,
          "internalType": "bool",
          "name": "active",
          "type": "bool"
        }
      ],
      "name": "ProductCreated",
      "type": "event"
    },
    {
      "constant": true,
      "inputs": [
        {
          "internalType": "uint256",
          "name": "",
          "type": "uint256"
        }
      ],
      "name": "productList",
      "outputs": [
        {
          "internalType": "uint256",
          "name": "productID",
          "type": "uint256"
        },
        {
          "internalType": "string",
          "name": "name",
          "type": "string"
        },
        {
          "internalType": "uint256",
          "name": "price",
          "type": "uint256"
        },
        {
          "internalType": "uint256",
          "name": "count",
          "type": "uint256"
        },
        {
          "internalType": "string",
          "name": "category",
          "type": "string"
        },
        {
          "components": [
            {
              "internalType": "string",
              "name": "company",
              "type": "string"
            },
            {
              "internalType": "string",
              "name": "description",
              "type": "string"
            }
          ],
          "internalType": "struct AddProduct.Desc",
          "name": "details",
          "type": "tuple"
        },
        {
          "internalType": "address payable",
          "name": "seller",
          "type": "address"
        },
        {
          "internalType": "bool",
          "name": "active",
          "type": "bool"
        }
      ],
      "payable": false,
      "stateMutability": "view",
      "type": "function"
    },
    {
      "constant": true,
      "inputs": [],
      "name": "productNumber",
      "outputs": [
        {
          "internalType": "uint256",
          "name": "",
          "type": "uint256"
        }
      ],
      "payable": false,
      "stateMutability": "view",
      "type": "function"
    },
    {
      "constant": false,
      "inputs": [
        {
          "internalType": "string",
          "name": "_name",
          "type": "string"
        },
        {
          "internalType": "uint256",
          "name": "_price",
          "type": "uint256"
        },
        {
          "internalType": "uint256",
          "name": "_count",
          "type": "uint256"
        },
        {
          "internalType": "string",
          "name": "_category",
          "type": "string"
        },
        {
          "internalType": "string",
          "name": "_company",
          "type": "string"
        },
        {
          "internalType": "string",
          "name": "_desc",
          "type": "string"
        }
      ],
      "name": "createProduct",
      "outputs": [],
      "payable": false,
      "stateMutability": "nonpayable",
      "type": "function"
    },
    {
      "constant": false,
      "inputs": [
        {
          "internalType": "uint256",
          "name": "_productID",
          "type": "uint256"
        }
      ],
      "name": "deleteProduct",
      "outputs": [],
      "payable": false,
      "stateMutability": "nonpayable",
      "type": "function"
    },
    {
      "constant": false,
      "inputs": [
        {
          "internalType": "uint256",
          "name": "_productID",
          "type": "uint256"
        },
        {
          "internalType": "uint256",
          "name": "_price",
          "type": "uint256"
        }
      ],
      "name": "changePrice",
      "outputs": [],
      "payable": false,
      "stateMutability": "nonpayable",
      "type": "function"
    },
    {
      "constant": false,
      "inputs": [
        {
          "internalType": "uint256",
          "name": "_productID",
          "type": "uint256"
        },
        {
          "internalType": "uint256",
          "name": "_count",
          "type": "uint256"
        }
      ],
      "name": "changeCount",
      "outputs": [],
      "payable": false,
      "stateMutability": "nonpayable",
      "type": "function"
    },
    {
      "constant": false,
      "inputs": [
        {
          "internalType": "uint256",
          "name": "_productID",
          "type": "uint256"
        },
        {
          "internalType": "uint256",
          "name": "_decCount",
          "type": "uint256"
        }
      ],
      "name": "decreaseCount",
      "outputs": [],
      "payable": false,
      "stateMutability": "nonpayable",
      "type": "function"
    },
    {
      "constant": false,
      "inputs": [
        {
          "internalType": "uint256",
          "name": "_productID",
          "type": "uint256"
        },
        {
          "internalType": "uint256",
          "name": "_incCount",
          "type": "uint256"
        }
      ],
      "name": "increaseCount",
      "outputs": [],
      "payable": false,
      "stateMutability": "nonpayable",
      "type": "function"
    },
    {
      "constant": true,
      "inputs": [
        {
          "internalType": "uint256",
          "name": "_productID",
          "type": "uint256"
        },
        {
          "internalType": "address",
          "name": "_addr",
          "type": "address"
        }
      ],
      "name": "isSeller",
      "outputs": [
        {
          "internalType": "bool",
          "name": "",
          "type": "bool"
        }
      ],
      "payable": false,
      "stateMutability": "view",
      "type": "function"
    },
    {
      "constant": true,
      "inputs": [
        {
          "internalType": "uint256",
          "name": "_productID",
          "type": "uint256"
        }
      ],
      "name": "productExist",
      "outputs": [
        {
          "internalType": "bool",
          "name": "",
          "type": "bool"
        }
      ],
      "payable": false,
      "stateMutability": "view",
      "type": "function"
    },
    {
      "constant": true,
      "inputs": [
        {
          "internalType": "uint256",
          "name": "_productID",
          "type": "uint256"
        }
      ],
      "name": "getProductPrice",
      "outputs": [
        {
          "internalType": "uint256",
          "name": "",
          "type": "uint256"
        }
      ],
      "payable": false,
      "stateMutability": "view",
      "type": "function"
    },
    {
      "constant": true,
      "inputs": [
        {
          "internalType": "uint256",
          "name": "_productID",
          "type": "uint256"
        }
      ],
      "name": "getProductCount",
      "outputs": [
        {
          "internalType": "uint256",
          "name": "",
          "type": "uint256"
        }
      ],
      "payable": false,
      "stateMutability": "view",
      "type": "function"
    },
    {
      "constant": true,
      "inputs": [
        {
          "internalType": "uint256",
          "name": "_productID",
          "type": "uint256"
        }
      ],
      "name": "getProductSeller",
      "outputs": [
        {
          "internalType": "address payable",
          "name": "",
          "type": "address"
        }
      ],
      "payable": false,
      "stateMutability": "view",
      "type": "function"
    },
    {
      "constant": true,
      "inputs": [],
      "name": "getSellerProducts",
      "outputs": [
        {
          "internalType": "uint256[]",
          "name": "productNum",
          "type": "uint256[]"
        }
      ],
      "payable": false,
      "stateMutability": "view",
      "type": "function"
    }
  ],
  "bytecode": "0x60806040526000805534801561001457600080fd5b50611c2d806100246000396000f3fe608060405234801561001057600080fd5b50600436106100ea5760003560e01c8063ad0436881161008c578063be91dc0f11610066578063be91dc0f1461024e578063e77a67ea1461027e578063e7bf7dfc146102ae578063ed90c7b7146102de576100ea565b8063ad043688146101e6578063ad4891ee14610202578063b3de019c14610232576100ea565b8063528c87d2116100c8578063528c87d2146101475780636628b6011461017e5780637fa022971461019a57806388c8b591146101b6576100ea565b806301b3490d146100ef57806324b8ab2c1461010d5780635034735d14610129575b600080fd5b6100f76102fa565b60405161010491906117e7565b60405180910390f35b6101276004803603610122919081019061129d565b61038f565b005b6101316106b3565b60405161013e9190611904565b60405180910390f35b610161600480360361015c9190810190611386565b6106b9565b6040516101759897969594939291906119b2565b60405180910390f35b610198600480360361019391908101906113eb565b6109ac565b005b6101b460048036036101af91908101906113eb565b610ac9565b005b6101d060048036036101cb9190810190611386565b610b88565b6040516101dd91906117cc565b60405180910390f35b61020060048036036101fb91908101906113eb565b610bc8565b005b61021c60048036036102179190810190611386565b610cd0565b6040516102299190611904565b60405180910390f35b61024c600480360361024791908101906113eb565b610cf0565b005b610268600480360361026391908101906113af565b610e4f565b6040516102759190611809565b60405180910390f35b61029860048036036102939190810190611386565b610ecf565b6040516102a59190611809565b60405180910390f35b6102c860048036036102c39190810190611386565b610f02565b6040516102d59190611904565b60405180910390f35b6102f860048036036102f39190810190611386565b610f22565b005b6060600360003373ffffffffffffffffffffffffffffffffffffffff1673ffffffffffffffffffffffffffffffffffffffff16815260200190815260200160002080548060200260200160405190810160405280929190818152602001828054801561038557602002820191906000526020600020905b815481526020019060010190808311610371575b5050505050905090565b60008651116103d3576040517f08c379a00000000000000000000000000000000000000000000000000000000081526004016103ca90611844565b60405180910390fd5b60008511610416576040517f08c379a000000000000000000000000000000000000000000000000000000000815260040161040d90611864565b60405180910390fd5b6000808154809291906001019190505550600060019050600085141561043b57600090505b610443611118565b60405180604001604052808581526020018481525090506001600054908060018154018082558091505090600182039060005260206000200160009091929091909150555060405180610100016040528060005481526020018981526020018881526020018781526020018681526020018281526020013373ffffffffffffffffffffffffffffffffffffffff1681526020018315158152506002600080548152602001908152602001600020600082015181600001556020820151816001019080519060200190610516929190611132565b5060408201518160020155606082015181600301556080820151816004019080519060200190610547929190611132565b5060a082015181600501600082015181600001908051906020019061056d929190611132565b50602082015181600101908051906020019061058a929190611132565b50505060c08201518160070160006101000a81548173ffffffffffffffffffffffffffffffffffffffff021916908373ffffffffffffffffffffffffffffffffffffffff16021790555060e08201518160070160146101000a81548160ff021916908315150217905550905050600360003373ffffffffffffffffffffffffffffffffffffffff1673ffffffffffffffffffffffffffffffffffffffff16815260200190815260200160002060005490806001815401808255809150509060018203906000526020600020016000909192909190915055507fb82642ef39710907a5c5c2d8dd7eedc015b18b353ea08777d848817298908a16600054898989898633896040516106a198979695949392919061191f565b60405180910390a15050505050505050565b60005481565b6002602052806000526040600020600091509050806000015490806001018054600181600116156101000203166002900480601f01602080910402602001604051908101604052809291908181526020018280546001816001161561010002031660029004801561076b5780601f106107405761010080835404028352916020019161076b565b820191906000526020600020905b81548152906001019060200180831161074e57829003601f168201915b505050505090806002015490806003015490806004018054600181600116156101000203166002900480601f0160208091040260200160405190810160405280929190818152602001828054600181600116156101000203166002900480156108155780601f106107ea57610100808354040283529160200191610815565b820191906000526020600020905b8154815290600101906020018083116107f857829003601f168201915b50505050509080600501604051806040016040529081600082018054600181600116156101000203166002900480601f0160208091040260200160405190810160405280929190818152602001828054600181600116156101000203166002900480156108c35780601f10610898576101008083540402835291602001916108c3565b820191906000526020600020905b8154815290600101906020018083116108a657829003601f168201915b50505050508152602001600182018054600181600116156101000203166002900480601f0160208091040260200160405190810160405280929190818152602001828054600181600116156101000203166002900480156109655780601f1061093a57610100808354040283529160200191610965565b820191906000526020600020905b81548152906001019060200180831161094857829003601f168201915b505050505081525050908060070160009054906101000a900473ffffffffffffffffffffffffffffffffffffffff16908060070160149054906101000a900460ff16905088565b6109b582610ecf565b6109f4576040517f08c379a00000000000000000000000000000000000000000000000000000000081526004016109eb90611824565b60405180910390fd5b6109fe8233610e4f565b610a3d576040517f08c379a0000000000000000000000000000000000000000000000000000000008152600401610a34906118a4565b60405180910390fd5b8060026000848152602001908152602001600020600301819055506000811415610a955760006002600084815260200190815260200160002060070160146101000a81548160ff021916908315150217905550610ac5565b60016002600084815260200190815260200160002060070160146101000a81548160ff0219169083151502179055505b5050565b610ad282610ecf565b610b11576040517f08c379a0000000000000000000000000000000000000000000000000000000008152600401610b0890611824565b60405180910390fd5b806002600084815260200190815260200160002060030160008282540192505081905550600060026000848152602001908152602001600020600301541115610b845760016002600084815260200190815260200160002060070160146101000a81548160ff0219169083151502179055505b5050565b60006002600083815260200190815260200160002060070160009054906101000a900473ffffffffffffffffffffffffffffffffffffffff169050919050565b610bd182610ecf565b610c10576040517f08c379a0000000000000000000000000000000000000000000000000000000008152600401610c0790611824565b60405180910390fd5b80610c1a83610cd0565b11610c5a576040517f08c379a0000000000000000000000000000000000000000000000000000000008152600401610c5190611884565b60405180910390fd5b8060026000848152602001908152602001600020600301600082825403925050819055506000600260008481526020019081526020016000206003015411610ccc5760006002600084815260200190815260200160002060070160146101000a81548160ff0219169083151502179055505b5050565b600060026000838152602001908152602001600020600301549050919050565b6000600260008481526020019081526020016000206000015411610d49576040517f08c379a0000000000000000000000000000000000000000000000000000000008152600401610d4090611824565b60405180910390fd5b60008111610d8c576040517f08c379a0000000000000000000000000000000000000000000000000000000008152600401610d83906118e4565b60405180910390fd5b3373ffffffffffffffffffffffffffffffffffffffff166002600084815260200190815260200160002060070160009054906101000a900473ffffffffffffffffffffffffffffffffffffffff1673ffffffffffffffffffffffffffffffffffffffff1614610e30576040517f08c379a0000000000000000000000000000000000000000000000000000000008152600401610e27906118a4565b60405180910390fd5b8060026000848152602001908152602001600020600201819055505050565b60008173ffffffffffffffffffffffffffffffffffffffff166002600085815260200190815260200160002060070160009054906101000a900473ffffffffffffffffffffffffffffffffffffffff1673ffffffffffffffffffffffffffffffffffffffff161415610ec45760019050610ec9565b600090505b92915050565b60008060026000848152602001908152602001600020600001541115610ef85760019050610efd565b600090505b919050565b600060026000838152602001908152602001600020600201549050919050565b610f2b81610ecf565b610f6a576040517f08c379a0000000000000000000000000000000000000000000000000000000008152600401610f6190611824565b60405180910390fd5b610f748133610e4f565b610fb3576040517f08c379a0000000000000000000000000000000000000000000000000000000008152600401610faa906118c4565b60405180910390fd5b60008090505b600180549050811015611064578160018281548110610fd457fe5b90600052602060002001541415611057575b60018080549050038110156110375760018082018154811061100457fe5b90600052602060002001546001828154811061101c57fe5b90600052602060002001819055508080600101915050610fe6565b6001818154811061104457fe5b9060005260206000200160009055611064565b8080600101915050610fb9565b506002600082815260200190815260200160002060008082016000905560018201600061109191906111b2565b600282016000905560038201600090556004820160006110b191906111b2565b60058201600080820160006110c691906111b2565b6001820160006110d691906111b2565b50506007820160006101000a81549073ffffffffffffffffffffffffffffffffffffffff02191690556007820160146101000a81549060ff0219169055505050565b604051806040016040528060608152602001606081525090565b828054600181600116156101000203166002900490600052602060002090601f016020900481019282601f1061117357805160ff19168380011785556111a1565b828001600101855582156111a1579182015b828111156111a0578251825591602001919060010190611185565b5b5090506111ae91906111fa565b5090565b50805460018160011615610100020316600290046000825580601f106111d857506111f7565b601f0160209004906000526020600020908101906111f691906111fa565b5b50565b61121c91905b80821115611218576000816000905550600101611200565b5090565b90565b60008135905061122e81611bbc565b92915050565b600082601f83011261124557600080fd5b813561125861125382611a72565b611a45565b9150808252602083016020830185838301111561127457600080fd5b61127f838284611b69565b50505092915050565b60008135905061129781611bd3565b92915050565b60008060008060008060c087890312156112b657600080fd5b600087013567ffffffffffffffff8111156112d057600080fd5b6112dc89828a01611234565b96505060206112ed89828a01611288565b95505060406112fe89828a01611288565b945050606087013567ffffffffffffffff81111561131b57600080fd5b61132789828a01611234565b935050608087013567ffffffffffffffff81111561134457600080fd5b61135089828a01611234565b92505060a087013567ffffffffffffffff81111561136d57600080fd5b61137989828a01611234565b9150509295509295509295565b60006020828403121561139857600080fd5b60006113a684828501611288565b91505092915050565b600080604083850312156113c257600080fd5b60006113d085828601611288565b92505060206113e18582860161121f565b9150509250929050565b600080604083850312156113fe57600080fd5b600061140c85828601611288565b925050602061141d85828601611288565b9150509250929050565b600061143383836117ae565b60208301905092915050565b61144881611b21565b82525050565b600061145982611aae565b6114638185611adc565b935061146e83611a9e565b8060005b8381101561149f5781516114868882611427565b975061149183611acf565b925050600181019050611472565b5085935050505092915050565b6114b581611b33565b82525050565b60006114c682611ac4565b6114d08185611afe565b93506114e0818560208601611b78565b6114e981611bab565b840191505092915050565b60006114ff82611ab9565b6115098185611aed565b9350611519818560208601611b78565b61152281611bab565b840191505092915050565b600061153882611ab9565b6115428185611afe565b9350611552818560208601611b78565b61155b81611bab565b840191505092915050565b6000611573601683611afe565b91507f50726f6475637420646f6573206e6f74206578697374000000000000000000006000830152602082019050919050565b60006115b3601483611afe565b91507f4e616d652043616e6e6f7420626520456d7074790000000000000000000000006000830152602082019050919050565b60006115f3601183611afe565b91507f5072696365206d757374206265203e20300000000000000000000000000000006000830152602082019050919050565b6000611633601283611afe565b91507f436f756e7420697320746f6f206c6172676500000000000000000000000000006000830152602082019050919050565b6000611673601c83611afe565b91507f4f6e6c792073656c6c65722063616e20757064617465207072696365000000006000830152602082019050919050565b60006116b3601e83611afe565b91507f4f6e6c792073656c6c65722063616e2064656c6574652070726f6475637400006000830152602082019050919050565b60006116f3601383611afe565b91507f50726963652053686f756c64206265203e2030000000000000000000000000006000830152602082019050919050565b6000604083016000830151848203600086015261174382826114f4565b9150506020830151848203602086015261175d82826114f4565b9150508091505092915050565b6000604083016000830151848203600086015261178782826114f4565b915050602083015184820360208601526117a182826114f4565b9150508091505092915050565b6117b781611b5f565b82525050565b6117c681611b5f565b82525050565b60006020820190506117e1600083018461143f565b92915050565b60006020820190508181036000830152611801818461144e565b905092915050565b600060208201905061181e60008301846114ac565b92915050565b6000602082019050818103600083015261183d81611566565b9050919050565b6000602082019050818103600083015261185d816115a6565b9050919050565b6000602082019050818103600083015261187d816115e6565b9050919050565b6000602082019050818103600083015261189d81611626565b9050919050565b600060208201905081810360008301526118bd81611666565b9050919050565b600060208201905081810360008301526118dd816116a6565b9050919050565b600060208201905081810360008301526118fd816116e6565b9050919050565b600060208201905061191960008301846117bd565b92915050565b600061010082019050611935600083018b6117bd565b8181036020830152611947818a6114bb565b905061195660408301896117bd565b61196360608301886117bd565b818103608083015261197581876114bb565b905081810360a08301526119898186611726565b905061199860c083018561143f565b6119a560e08301846114ac565b9998505050505050505050565b6000610100820190506119c8600083018b6117bd565b81810360208301526119da818a61152d565b90506119e960408301896117bd565b6119f660608301886117bd565b8181036080830152611a08818761152d565b905081810360a0830152611a1c818661176a565b9050611a2b60c083018561143f565b611a3860e08301846114ac565b9998505050505050505050565b6000604051905081810181811067ffffffffffffffff82111715611a6857600080fd5b8060405250919050565b600067ffffffffffffffff821115611a8957600080fd5b601f19601f8301169050602081019050919050565b6000819050602082019050919050565b600081519050919050565b600081519050919050565b600081519050919050565b6000602082019050919050565b600082825260208201905092915050565b600082825260208201905092915050565b600082825260208201905092915050565b6000611b1a82611b3f565b9050919050565b6000611b2c82611b3f565b9050919050565b60008115159050919050565b600073ffffffffffffffffffffffffffffffffffffffff82169050919050565b6000819050919050565b82818337600083830152505050565b60005b83811015611b96578082015181840152602081019050611b7b565b83811115611ba5576000848401525b50505050565b6000601f19601f8301169050919050565b611bc581611b0f565b8114611bd057600080fd5b50565b611bdc81611b5f565b8114611be757600080fd5b5056fea365627a7a723158209879b2224d1116eee0a5c351db48eb28b53f4d0597ddfe70cf924dc8b515b58e6c6578706572696d656e74616cf564736f6c63430005100040",
  "source": "pragma solidity ^0.5.0;\r\npragma experimental ABIEncoderV2;\r\n\r\n\r\ncontract AddProduct {\r\n    uint public productNumber = 0;\r\n    uint[] productListKeys;\r\n    mapping(uint => Product) public productList;\r\n    mapping(address => uint[]) sellerProducts;\r\n\r\n    struct Product{\r\n        uint productID;\r\n        string name;\r\n        uint price;\r\n        uint count;\r\n        string category;\r\n        Desc details;\r\n        address payable seller;\r\n        bool active;\r\n    }\r\n\r\n    struct Desc {\r\n        string company;\r\n        string description;\r\n    }\r\n\r\n    event ProductCreated(\r\n        uint productID,\r\n        string name,\r\n        uint price,\r\n        uint count,\r\n        string category,\r\n        Desc details,\r\n        address payable seller,\r\n        bool active\r\n    );\r\n\r\n    function createProduct(string memory _name, uint _price,uint _count,string memory _category,string memory _company, string memory _desc) public {\r\n        require(bytes(_name).length > 0,\"Name Cannot be Empty\");\r\n        require(_price > 0, \"Price must be > 0\");\r\n        productNumber ++;\r\n        bool _active = true;\r\n        if (_count == 0){\r\n            _active = false;\r\n        }\r\n        Desc memory _details = Desc(_company,_desc);\r\n        productListKeys.push(productNumber);\r\n        productList[productNumber] = Product(productNumber, _name, _price, _count, _category, _details, msg.sender, _active);\r\n        sellerProducts[msg.sender].push(productNumber);\r\n        // Trigger an event\r\n        emit ProductCreated(productNumber, _name, _price, _count, _category, _details, msg.sender, _active);\r\n    }\r\n\r\n    function deleteProduct(uint _productID) public {\r\n        require(productExist(_productID),\"Product does not exist\");\r\n        require(isSeller(_productID, msg.sender),\"Only seller can delete product\");\r\n        for(uint i = 0;i<productListKeys.length;i++){\r\n            if (productListKeys[i] == _productID){\r\n                for(i;i<productListKeys.length-1;i++){\r\n                    productListKeys[i] = productListKeys[i+1];\r\n                }\r\n                delete productListKeys[i];\r\n                break;\r\n            }\r\n        }\r\n        delete productList[_productID];\r\n    }\r\n\r\n    function changePrice(uint _productID,uint _price) public{\r\n        require(productList[_productID].productID>0,\"Product does not exist\");\r\n        require(_price>0,\"Price Should be > 0\");\r\n        require(productList[_productID].seller == msg.sender,\"Only seller can update price\");\r\n        productList[_productID].price = _price;\r\n    }\r\n    function changeCount(uint _productID,uint _count) public{\r\n        require(productExist(_productID),\"Product does not exist\");\r\n        require(isSeller(_productID, msg.sender),\"Only seller can update price\");\r\n        productList[_productID].count = _count;\r\n        if (_count == 0){\r\n            productList[_productID].active = false;\r\n        }\r\n        else{\r\n            productList[_productID].active = true;\r\n        }\r\n    }\r\n\r\n    function decreaseCount(uint _productID,uint _decCount) public{\r\n        require(productExist(_productID),\"Product does not exist\");\r\n        require(getProductCount(_productID) > _decCount,\"Count is too large\");\r\n        productList[_productID].count -= _decCount;\r\n        if (productList[_productID].count <= 0){\r\n            productList[_productID].active = false;\r\n        }\r\n    }\r\n    function increaseCount(uint _productID,uint _incCount) public{\r\n        require(productExist(_productID),\"Product does not exist\");\r\n        productList[_productID].count += _incCount;\r\n        if (productList[_productID].count > 0){\r\n            productList[_productID].active = true;\r\n        }\r\n    }\r\n    \r\n    function isSeller(uint _productID,address _addr) public view returns (bool){\r\n        if (productList[_productID].seller == _addr)\r\n            return true;\r\n        return false;\r\n    }\r\n    \r\n    function productExist(uint _productID) public view returns (bool){\r\n        if (productList[_productID].productID > 0)\r\n            return true;\r\n        return false;\r\n    }\r\n\r\n    function getProductPrice(uint _productID) public view returns (uint){\r\n        return productList[_productID].price;\r\n    }\r\n    function getProductCount(uint _productID) public view returns (uint){\r\n        return productList[_productID].count;\r\n    }\r\n    function getProductSeller(uint _productID) public view returns (address payable){\r\n        return productList[_productID].seller;\r\n    }\r\n    function getSellerProducts() public view returns (uint[] memory productNum){\r\n        productNum = sellerProducts[msg.sender];\r\n    }\r\n}",
  "sourcePath": "E:\\Blockchain\\Shopchain\\contracts\\AddProduct.sol",
  "compiler": {
    "name": "solc",
    "version": "0.5.16+commit.9c3226ce.Emscripten.clang"
  },
  "schemaVersion": "3.1.0",
  "updatedAt": "2020-05-10T09:05:38.812Z",
  "networkType": "ethereum",
  "devdoc": {
    "methods": {}
  },
  "userdoc": {
    "methods": {}
  }
}