{
  "contractName": "AddProduct",
  "abi": [
    {
      "anonymous": false,
      "inputs": [
        {
          "indexed": false,
          "internalType": "uint256",
          "name": "productID",
          "type": "uint256"
        },
        {
          "indexed": false,
          "internalType": "string",
          "name": "name",
          "type": "string"
        },
        {
          "indexed": false,
          "internalType": "uint256",
          "name": "price",
          "type": "uint256"
        },
        {
          "indexed": false,
          "internalType": "uint256",
          "name": "count",
          "type": "uint256"
        },
        {
          "indexed": false,
          "internalType": "string",
          "name": "category",
          "type": "string"
        },
        {
          "components": [
            {
              "internalType": "string",
              "name": "company",
              "type": "string"
            },
            {
              "internalType": "string",
              "name": "description",
              "type": "string"
            }
          ],
          "indexed": false,
          "internalType": "struct AddProduct.Desc",
          "name": "details",
          "type": "tuple"
        },
        {
          "indexed": false,
          "internalType": "address payable",
          "name": "seller",
          "type": "address"
        },
        {
          "indexed": false,
          "internalType": "bool",
          "name": "active",
          "type": "bool"
        }
      ],
      "name": "ProductCreated",
      "type": "event"
    },
    {
      "constant": true,
      "inputs": [
        {
          "internalType": "uint256",
          "name": "",
          "type": "uint256"
        }
      ],
      "name": "productList",
      "outputs": [
        {
          "internalType": "uint256",
          "name": "productID",
          "type": "uint256"
        },
        {
          "internalType": "string",
          "name": "name",
          "type": "string"
        },
        {
          "internalType": "uint256",
          "name": "price",
          "type": "uint256"
        },
        {
          "internalType": "uint256",
          "name": "count",
          "type": "uint256"
        },
        {
          "internalType": "string",
          "name": "category",
          "type": "string"
        },
        {
          "components": [
            {
              "internalType": "string",
              "name": "company",
              "type": "string"
            },
            {
              "internalType": "string",
              "name": "description",
              "type": "string"
            }
          ],
          "internalType": "struct AddProduct.Desc",
          "name": "details",
          "type": "tuple"
        },
        {
          "internalType": "address payable",
          "name": "seller",
          "type": "address"
        },
        {
          "internalType": "bool",
          "name": "active",
          "type": "bool"
        }
      ],
      "payable": false,
      "stateMutability": "view",
      "type": "function"
    },
    {
      "constant": true,
      "inputs": [],
      "name": "productNumber",
      "outputs": [
        {
          "internalType": "uint256",
          "name": "",
          "type": "uint256"
        }
      ],
      "payable": false,
      "stateMutability": "view",
      "type": "function"
    },
    {
      "constant": false,
      "inputs": [
        {
          "internalType": "string",
          "name": "_name",
          "type": "string"
        },
        {
          "internalType": "uint256",
          "name": "_price",
          "type": "uint256"
        },
        {
          "internalType": "uint256",
          "name": "_count",
          "type": "uint256"
        },
        {
          "internalType": "string",
          "name": "_category",
          "type": "string"
        },
        {
          "internalType": "string",
          "name": "_company",
          "type": "string"
        },
        {
          "internalType": "string",
          "name": "_desc",
          "type": "string"
        }
      ],
      "name": "createProduct",
      "outputs": [],
      "payable": false,
      "stateMutability": "nonpayable",
      "type": "function"
    },
    {
      "constant": false,
      "inputs": [
        {
          "internalType": "uint256",
          "name": "_productID",
          "type": "uint256"
        }
      ],
      "name": "deleteProduct",
      "outputs": [],
      "payable": false,
      "stateMutability": "nonpayable",
      "type": "function"
    },
    {
      "constant": false,
      "inputs": [
        {
          "internalType": "uint256",
          "name": "_productID",
          "type": "uint256"
        },
        {
          "internalType": "uint256",
          "name": "_price",
          "type": "uint256"
        }
      ],
      "name": "changePrice",
      "outputs": [],
      "payable": false,
      "stateMutability": "nonpayable",
      "type": "function"
    },
    {
      "constant": false,
      "inputs": [
        {
          "internalType": "uint256",
          "name": "_productID",
          "type": "uint256"
        },
        {
          "internalType": "uint256",
          "name": "_count",
          "type": "uint256"
        }
      ],
      "name": "changeCount",
      "outputs": [],
      "payable": false,
      "stateMutability": "nonpayable",
      "type": "function"
    },
    {
      "constant": false,
      "inputs": [
        {
          "internalType": "uint256",
          "name": "_productID",
          "type": "uint256"
        },
        {
          "internalType": "uint256",
          "name": "_decCount",
          "type": "uint256"
        }
      ],
      "name": "decreaseCount",
      "outputs": [],
      "payable": false,
      "stateMutability": "nonpayable",
      "type": "function"
    },
    {
      "constant": false,
      "inputs": [
        {
          "internalType": "uint256",
          "name": "_productID",
          "type": "uint256"
        },
        {
          "internalType": "uint256",
          "name": "_incCount",
          "type": "uint256"
        }
      ],
      "name": "increaseCount",
      "outputs": [],
      "payable": false,
      "stateMutability": "nonpayable",
      "type": "function"
    },
    {
      "constant": true,
      "inputs": [
        {
          "internalType": "uint256",
          "name": "_productID",
          "type": "uint256"
        },
        {
          "internalType": "address",
          "name": "_addr",
          "type": "address"
        }
      ],
      "name": "isSeller",
      "outputs": [
        {
          "internalType": "bool",
          "name": "",
          "type": "bool"
        }
      ],
      "payable": false,
      "stateMutability": "view",
      "type": "function"
    },
    {
      "constant": true,
      "inputs": [
        {
          "internalType": "uint256",
          "name": "_productID",
          "type": "uint256"
        }
      ],
      "name": "productExist",
      "outputs": [
        {
          "internalType": "bool",
          "name": "",
          "type": "bool"
        }
      ],
      "payable": false,
      "stateMutability": "view",
      "type": "function"
    },
    {
      "constant": true,
      "inputs": [
        {
          "internalType": "uint256",
          "name": "_productID",
          "type": "uint256"
        }
      ],
      "name": "getProductPrice",
      "outputs": [
        {
          "internalType": "uint256",
          "name": "",
          "type": "uint256"
        }
      ],
      "payable": false,
      "stateMutability": "view",
      "type": "function"
    },
    {
      "constant": true,
      "inputs": [
        {
          "internalType": "uint256",
          "name": "_productID",
          "type": "uint256"
        }
      ],
      "name": "getProductCount",
      "outputs": [
        {
          "internalType": "uint256",
          "name": "",
          "type": "uint256"
        }
      ],
      "payable": false,
      "stateMutability": "view",
      "type": "function"
    },
    {
      "constant": true,
      "inputs": [
        {
          "internalType": "uint256",
          "name": "_productID",
          "type": "uint256"
        }
      ],
      "name": "getProductSeller",
      "outputs": [
        {
          "internalType": "address payable",
          "name": "",
          "type": "address"
        }
      ],
      "payable": false,
      "stateMutability": "view",
      "type": "function"
    },
    {
      "constant": true,
      "inputs": [],
      "name": "giveSellerProducts",
      "outputs": [
        {
          "internalType": "uint256[]",
          "name": "productNum",
          "type": "uint256[]"
        }
      ],
      "payable": false,
      "stateMutability": "view",
      "type": "function"
    }
  ],
  "bytecode": "0x60806040526000805534801561001457600080fd5b50611c36806100246000396000f3fe608060405234801561001057600080fd5b50600436106100ea5760003560e01c8063ad0436881161008c578063be91dc0f11610066578063be91dc0f1461024e578063e77a67ea1461027e578063e7bf7dfc146102ae578063ed90c7b7146102de576100ea565b8063ad043688146101e6578063ad4891ee14610202578063b3de019c14610232576100ea565b8063528c87d2116100c8578063528c87d2146101475780636628b6011461017e5780637fa022971461019a57806388c8b591146101b6576100ea565b806324b8ab2c146100ef57806330b55d7d1461010b5780635034735d14610129575b600080fd5b610109600480360361010491908101906112a6565b6102fa565b005b61011361061e565b60405161012091906117f0565b60405180910390f35b6101316106b3565b60405161013e919061190d565b60405180910390f35b610161600480360361015c919081019061138f565b6106b9565b6040516101759897969594939291906119bb565b60405180910390f35b610198600480360361019391908101906113f4565b6109ac565b005b6101b460048036036101af91908101906113f4565b610ac9565b005b6101d060048036036101cb919081019061138f565b610b91565b6040516101dd91906117d5565b60405180910390f35b61020060048036036101fb91908101906113f4565b610bd1565b005b61021c6004803603610217919081019061138f565b610cd9565b604051610229919061190d565b60405180910390f35b61024c600480360361024791908101906113f4565b610cf9565b005b610268600480360361026391908101906113b8565b610e58565b6040516102759190611812565b60405180910390f35b6102986004803603610293919081019061138f565b610ed8565b6040516102a59190611812565b60405180910390f35b6102c860048036036102c3919081019061138f565b610f0b565b6040516102d5919061190d565b60405180910390f35b6102f860048036036102f3919081019061138f565b610f2b565b005b600086511161033e576040517f08c379a00000000000000000000000000000000000000000000000000000000081526004016103359061184d565b60405180910390fd5b60008511610381576040517f08c379a00000000000000000000000000000000000000000000000000000000081526004016103789061186d565b60405180910390fd5b600080815480929190600101919050555060006001905060008514156103a657600090505b6103ae611121565b60405180604001604052808581526020018481525090506001600054908060018154018082558091505090600182039060005260206000200160009091929091909150555060405180610100016040528060005481526020018981526020018881526020018781526020018681526020018281526020013373ffffffffffffffffffffffffffffffffffffffff168152602001831515815250600260008054815260200190815260200160002060008201518160000155602082015181600101908051906020019061048192919061113b565b50604082015181600201556060820151816003015560808201518160040190805190602001906104b292919061113b565b5060a08201518160050160008201518160000190805190602001906104d892919061113b565b5060208201518160010190805190602001906104f592919061113b565b50505060c08201518160070160006101000a81548173ffffffffffffffffffffffffffffffffffffffff021916908373ffffffffffffffffffffffffffffffffffffffff16021790555060e08201518160070160146101000a81548160ff021916908315150217905550905050600360003373ffffffffffffffffffffffffffffffffffffffff1673ffffffffffffffffffffffffffffffffffffffff16815260200190815260200160002060005490806001815401808255809150509060018203906000526020600020016000909192909190915055507fb82642ef39710907a5c5c2d8dd7eedc015b18b353ea08777d848817298908a166000548989898986338960405161060c989796959493929190611928565b60405180910390a15050505050505050565b6060600360003373ffffffffffffffffffffffffffffffffffffffff1673ffffffffffffffffffffffffffffffffffffffff1681526020019081526020016000208054806020026020016040519081016040528092919081815260200182805480156106a957602002820191906000526020600020905b815481526020019060010190808311610695575b5050505050905090565b60005481565b6002602052806000526040600020600091509050806000015490806001018054600181600116156101000203166002900480601f01602080910402602001604051908101604052809291908181526020018280546001816001161561010002031660029004801561076b5780601f106107405761010080835404028352916020019161076b565b820191906000526020600020905b81548152906001019060200180831161074e57829003601f168201915b505050505090806002015490806003015490806004018054600181600116156101000203166002900480601f0160208091040260200160405190810160405280929190818152602001828054600181600116156101000203166002900480156108155780601f106107ea57610100808354040283529160200191610815565b820191906000526020600020905b8154815290600101906020018083116107f857829003601f168201915b50505050509080600501604051806040016040529081600082018054600181600116156101000203166002900480601f0160208091040260200160405190810160405280929190818152602001828054600181600116156101000203166002900480156108c35780601f10610898576101008083540402835291602001916108c3565b820191906000526020600020905b8154815290600101906020018083116108a657829003601f168201915b50505050508152602001600182018054600181600116156101000203166002900480601f0160208091040260200160405190810160405280929190818152602001828054600181600116156101000203166002900480156109655780601f1061093a57610100808354040283529160200191610965565b820191906000526020600020905b81548152906001019060200180831161094857829003601f168201915b505050505081525050908060070160009054906101000a900473ffffffffffffffffffffffffffffffffffffffff16908060070160149054906101000a900460ff16905088565b6109b582610ed8565b6109f4576040517f08c379a00000000000000000000000000000000000000000000000000000000081526004016109eb9061182d565b60405180910390fd5b6109fe8233610e58565b610a3d576040517f08c379a0000000000000000000000000000000000000000000000000000000008152600401610a34906118ad565b60405180910390fd5b8060026000848152602001908152602001600020600301819055506000811415610a955760006002600084815260200190815260200160002060070160146101000a81548160ff021916908315150217905550610ac5565b60016002600084815260200190815260200160002060070160146101000a81548160ff0219169083151502179055505b5050565b610ad282610ed8565b610b11576040517f08c379a0000000000000000000000000000000000000000000000000000000008152600401610b089061182d565b60405180910390fd5b806002600060018503815260200190815260200160002060030160008282540192505081905550600060026000600185038152602001908152602001600020600301541115610b8d5760016002600060018503815260200190815260200160002060070160146101000a81548160ff0219169083151502179055505b5050565b60006002600083815260200190815260200160002060070160009054906101000a900473ffffffffffffffffffffffffffffffffffffffff169050919050565b610bda82610ed8565b610c19576040517f08c379a0000000000000000000000000000000000000000000000000000000008152600401610c109061182d565b60405180910390fd5b80610c2383610cd9565b11610c63576040517f08c379a0000000000000000000000000000000000000000000000000000000008152600401610c5a9061188d565b60405180910390fd5b8060026000848152602001908152602001600020600301600082825403925050819055506000600260008481526020019081526020016000206003015411610cd55760006002600084815260200190815260200160002060070160146101000a81548160ff0219169083151502179055505b5050565b600060026000838152602001908152602001600020600301549050919050565b6000600260008481526020019081526020016000206000015411610d52576040517f08c379a0000000000000000000000000000000000000000000000000000000008152600401610d499061182d565b60405180910390fd5b60008111610d95576040517f08c379a0000000000000000000000000000000000000000000000000000000008152600401610d8c906118ed565b60405180910390fd5b3373ffffffffffffffffffffffffffffffffffffffff166002600084815260200190815260200160002060070160009054906101000a900473ffffffffffffffffffffffffffffffffffffffff1673ffffffffffffffffffffffffffffffffffffffff1614610e39576040517f08c379a0000000000000000000000000000000000000000000000000000000008152600401610e30906118ad565b60405180910390fd5b8060026000848152602001908152602001600020600201819055505050565b60008173ffffffffffffffffffffffffffffffffffffffff166002600085815260200190815260200160002060070160009054906101000a900473ffffffffffffffffffffffffffffffffffffffff1673ffffffffffffffffffffffffffffffffffffffff161415610ecd5760019050610ed2565b600090505b92915050565b60008060026000848152602001908152602001600020600001541115610f015760019050610f06565b600090505b919050565b600060026000838152602001908152602001600020600201549050919050565b610f3481610ed8565b610f73576040517f08c379a0000000000000000000000000000000000000000000000000000000008152600401610f6a9061182d565b60405180910390fd5b610f7d8133610e58565b610fbc576040517f08c379a0000000000000000000000000000000000000000000000000000000008152600401610fb3906118cd565b60405180910390fd5b60008090505b60018054905081101561106d578160018281548110610fdd57fe5b90600052602060002001541415611060575b60018080549050038110156110405760018082018154811061100d57fe5b90600052602060002001546001828154811061102557fe5b90600052602060002001819055508080600101915050610fef565b6001818154811061104d57fe5b906000526020600020016000905561106d565b8080600101915050610fc2565b506002600082815260200190815260200160002060008082016000905560018201600061109a91906111bb565b600282016000905560038201600090556004820160006110ba91906111bb565b60058201600080820160006110cf91906111bb565b6001820160006110df91906111bb565b50506007820160006101000a81549073ffffffffffffffffffffffffffffffffffffffff02191690556007820160146101000a81549060ff0219169055505050565b604051806040016040528060608152602001606081525090565b828054600181600116156101000203166002900490600052602060002090601f016020900481019282601f1061117c57805160ff19168380011785556111aa565b828001600101855582156111aa579182015b828111156111a957825182559160200191906001019061118e565b5b5090506111b79190611203565b5090565b50805460018160011615610100020316600290046000825580601f106111e15750611200565b601f0160209004906000526020600020908101906111ff9190611203565b5b50565b61122591905b80821115611221576000816000905550600101611209565b5090565b90565b60008135905061123781611bc5565b92915050565b600082601f83011261124e57600080fd5b813561126161125c82611a7b565b611a4e565b9150808252602083016020830185838301111561127d57600080fd5b611288838284611b72565b50505092915050565b6000813590506112a081611bdc565b92915050565b60008060008060008060c087890312156112bf57600080fd5b600087013567ffffffffffffffff8111156112d957600080fd5b6112e589828a0161123d565b96505060206112f689828a01611291565b955050604061130789828a01611291565b945050606087013567ffffffffffffffff81111561132457600080fd5b61133089828a0161123d565b935050608087013567ffffffffffffffff81111561134d57600080fd5b61135989828a0161123d565b92505060a087013567ffffffffffffffff81111561137657600080fd5b61138289828a0161123d565b9150509295509295509295565b6000602082840312156113a157600080fd5b60006113af84828501611291565b91505092915050565b600080604083850312156113cb57600080fd5b60006113d985828601611291565b92505060206113ea85828601611228565b9150509250929050565b6000806040838503121561140757600080fd5b600061141585828601611291565b925050602061142685828601611291565b9150509250929050565b600061143c83836117b7565b60208301905092915050565b61145181611b2a565b82525050565b600061146282611ab7565b61146c8185611ae5565b935061147783611aa7565b8060005b838110156114a857815161148f8882611430565b975061149a83611ad8565b92505060018101905061147b565b5085935050505092915050565b6114be81611b3c565b82525050565b60006114cf82611acd565b6114d98185611b07565b93506114e9818560208601611b81565b6114f281611bb4565b840191505092915050565b600061150882611ac2565b6115128185611af6565b9350611522818560208601611b81565b61152b81611bb4565b840191505092915050565b600061154182611ac2565b61154b8185611b07565b935061155b818560208601611b81565b61156481611bb4565b840191505092915050565b600061157c601683611b07565b91507f50726f6475637420646f6573206e6f74206578697374000000000000000000006000830152602082019050919050565b60006115bc601483611b07565b91507f4e616d652043616e6e6f7420626520456d7074790000000000000000000000006000830152602082019050919050565b60006115fc601183611b07565b91507f5072696365206d757374206265203e20300000000000000000000000000000006000830152602082019050919050565b600061163c601283611b07565b91507f436f756e7420697320746f6f206c6172676500000000000000000000000000006000830152602082019050919050565b600061167c601c83611b07565b91507f4f6e6c792073656c6c65722063616e20757064617465207072696365000000006000830152602082019050919050565b60006116bc601e83611b07565b91507f4f6e6c792073656c6c65722063616e2064656c6574652070726f6475637400006000830152602082019050919050565b60006116fc601383611b07565b91507f50726963652053686f756c64206265203e2030000000000000000000000000006000830152602082019050919050565b6000604083016000830151848203600086015261174c82826114fd565b9150506020830151848203602086015261176682826114fd565b9150508091505092915050565b6000604083016000830151848203600086015261179082826114fd565b915050602083015184820360208601526117aa82826114fd565b9150508091505092915050565b6117c081611b68565b82525050565b6117cf81611b68565b82525050565b60006020820190506117ea6000830184611448565b92915050565b6000602082019050818103600083015261180a8184611457565b905092915050565b600060208201905061182760008301846114b5565b92915050565b600060208201905081810360008301526118468161156f565b9050919050565b60006020820190508181036000830152611866816115af565b9050919050565b60006020820190508181036000830152611886816115ef565b9050919050565b600060208201905081810360008301526118a68161162f565b9050919050565b600060208201905081810360008301526118c68161166f565b9050919050565b600060208201905081810360008301526118e6816116af565b9050919050565b60006020820190508181036000830152611906816116ef565b9050919050565b600060208201905061192260008301846117c6565b92915050565b60006101008201905061193e600083018b6117c6565b8181036020830152611950818a6114c4565b905061195f60408301896117c6565b61196c60608301886117c6565b818103608083015261197e81876114c4565b905081810360a0830152611992818661172f565b90506119a160c0830185611448565b6119ae60e08301846114b5565b9998505050505050505050565b6000610100820190506119d1600083018b6117c6565b81810360208301526119e3818a611536565b90506119f260408301896117c6565b6119ff60608301886117c6565b8181036080830152611a118187611536565b905081810360a0830152611a258186611773565b9050611a3460c0830185611448565b611a4160e08301846114b5565b9998505050505050505050565b6000604051905081810181811067ffffffffffffffff82111715611a7157600080fd5b8060405250919050565b600067ffffffffffffffff821115611a9257600080fd5b601f19601f8301169050602081019050919050565b6000819050602082019050919050565b600081519050919050565b600081519050919050565b600081519050919050565b6000602082019050919050565b600082825260208201905092915050565b600082825260208201905092915050565b600082825260208201905092915050565b6000611b2382611b48565b9050919050565b6000611b3582611b48565b9050919050565b60008115159050919050565b600073ffffffffffffffffffffffffffffffffffffffff82169050919050565b6000819050919050565b82818337600083830152505050565b60005b83811015611b9f578082015181840152602081019050611b84565b83811115611bae576000848401525b50505050565b6000601f19601f8301169050919050565b611bce81611b18565b8114611bd957600080fd5b50565b611be581611b68565b8114611bf057600080fd5b5056fea365627a7a7231582023e8192c637cbf96b5109156872c8b3e69e6b8f2ee79d5142bdfa06510a95d1a6c6578706572696d656e74616cf564736f6c63430005100040",
  "source": "pragma solidity ^0.5.0;\r\npragma experimental ABIEncoderV2;\r\n\r\n\r\ncontract AddProduct {\r\n    uint public productNumber = 0;\r\n    uint[] productListKeys;\r\n    mapping(uint => Product) public productList;\r\n    mapping(address => uint[]) sellerProducts;\r\n\r\n    struct Product{\r\n        uint productID;\r\n        string name;\r\n        uint price;\r\n        uint count;\r\n        string category;\r\n        Desc details;\r\n        address payable seller;\r\n        bool active;\r\n    }\r\n\r\n    struct Desc {\r\n        string company;\r\n        string description;\r\n    }\r\n\r\n    event ProductCreated(\r\n        uint productID,\r\n        string name,\r\n        uint price,\r\n        uint count,\r\n        string category,\r\n        Desc details,\r\n        address payable seller,\r\n        bool active\r\n    );\r\n\r\n    function createProduct(string memory _name, uint _price,uint _count,string memory _category,string memory _company, string memory _desc) public {\r\n        require(bytes(_name).length > 0,\"Name Cannot be Empty\");\r\n        require(_price > 0, \"Price must be > 0\");\r\n        productNumber ++;\r\n        bool _active = true;\r\n        if (_count == 0){\r\n            _active = false;\r\n        }\r\n        Desc memory _details = Desc(_company,_desc);\r\n        productListKeys.push(productNumber);\r\n        productList[productNumber] = Product(productNumber, _name, _price, _count, _category, _details, msg.sender, _active);\r\n        sellerProducts[msg.sender].push(productNumber);\r\n        // Trigger an event\r\n        emit ProductCreated(productNumber, _name, _price, _count, _category, _details, msg.sender, _active);\r\n    }\r\n\r\n    function deleteProduct(uint _productID) public {\r\n        require(productExist(_productID),\"Product does not exist\");\r\n        require(isSeller(_productID, msg.sender),\"Only seller can delete product\");\r\n        for(uint i = 0;i<productListKeys.length;i++){\r\n            if (productListKeys[i] == _productID){\r\n                for(i;i<productListKeys.length-1;i++){\r\n                    productListKeys[i] = productListKeys[i+1];\r\n                }\r\n                delete productListKeys[i];\r\n                break;\r\n            }\r\n        }\r\n        delete productList[_productID];\r\n    }\r\n\r\n    function changePrice(uint _productID,uint _price) public{\r\n        require(productList[_productID].productID>0,\"Product does not exist\");\r\n        require(_price>0,\"Price Should be > 0\");\r\n        require(productList[_productID].seller == msg.sender,\"Only seller can update price\");\r\n        productList[_productID].price = _price;\r\n    }\r\n    function changeCount(uint _productID,uint _count) public{\r\n        require(productExist(_productID),\"Product does not exist\");\r\n        require(isSeller(_productID, msg.sender),\"Only seller can update price\");\r\n        productList[_productID].count = _count;\r\n        if (_count == 0){\r\n            productList[_productID].active = false;\r\n        }\r\n        else{\r\n            productList[_productID].active = true;\r\n        }\r\n    }\r\n\r\n    function decreaseCount(uint _productID,uint _decCount) public{\r\n        require(productExist(_productID),\"Product does not exist\");\r\n        require(getProductCount(_productID) > _decCount,\"Count is too large\");\r\n        productList[_productID].count -= _decCount;\r\n        if (productList[_productID].count <= 0){\r\n            productList[_productID].active = false;\r\n        }\r\n    }\r\n    function increaseCount(uint _productID,uint _incCount) public{\r\n        require(productExist(_productID),\"Product does not exist\");\r\n        productList[_productID-1].count += _incCount;\r\n        if (productList[_productID-1].count > 0){\r\n            productList[_productID-1].active = true;\r\n        }\r\n    }\r\n    \r\n    function isSeller(uint _productID,address _addr) public view returns (bool){\r\n        if (productList[_productID].seller == _addr)\r\n            return true;\r\n        return false;\r\n    }\r\n    \r\n    function productExist(uint _productID) public view returns (bool){\r\n        if (productList[_productID].productID > 0)\r\n            return true;\r\n        return false;\r\n    }\r\n\r\n    function getProductPrice(uint _productID) public view returns (uint){\r\n        return productList[_productID].price;\r\n    }\r\n    function getProductCount(uint _productID) public view returns (uint){\r\n        return productList[_productID].count;\r\n    }\r\n    function getProductSeller(uint _productID) public view returns (address payable){\r\n        return productList[_productID].seller;\r\n    }\r\n    function giveSellerProducts() public view returns (uint[] memory productNum){\r\n        productNum = sellerProducts[msg.sender];\r\n    }\r\n}",
  "sourcePath": "E:\\Blockchain\\Shopchain\\contracts\\AddProduct.sol",
  "compiler": {
    "name": "solc",
    "version": "0.5.16+commit.9c3226ce.Emscripten.clang"
  },
  "schemaVersion": "3.1.0",
  "updatedAt": "2020-05-10T07:53:07.981Z",
  "networkType": "ethereum",
  "devdoc": {
    "methods": {}
  },
  "userdoc": {
    "methods": {}
  }
}