{
  "contractName": "Shopping",
  "abi": [
    {
      "inputs": [
        {
          "internalType": "address",
          "name": "_addr",
          "type": "address"
        }
      ],
      "payable": false,
      "stateMutability": "nonpayable",
      "type": "constructor"
    },
    {
      "anonymous": false,
      "inputs": [
        {
          "indexed": false,
          "internalType": "uint256",
          "name": "orderID",
          "type": "uint256"
        },
        {
          "indexed": false,
          "internalType": "uint256",
          "name": "productID",
          "type": "uint256"
        },
        {
          "indexed": false,
          "internalType": "uint256",
          "name": "count",
          "type": "uint256"
        },
        {
          "indexed": false,
          "internalType": "uint256",
          "name": "amount",
          "type": "uint256"
        },
        {
          "indexed": false,
          "internalType": "address",
          "name": "buyer",
          "type": "address"
        },
        {
          "indexed": false,
          "internalType": "uint256",
          "name": "status",
          "type": "uint256"
        }
      ],
      "name": "orderPlaced",
      "type": "event"
    },
    {
      "constant": true,
      "inputs": [
        {
          "internalType": "address",
          "name": "",
          "type": "address"
        },
        {
          "internalType": "uint256",
          "name": "",
          "type": "uint256"
        }
      ],
      "name": "buyerList",
      "outputs": [
        {
          "internalType": "uint256",
          "name": "",
          "type": "uint256"
        }
      ],
      "payable": false,
      "stateMutability": "view",
      "type": "function"
    },
    {
      "constant": true,
      "inputs": [
        {
          "internalType": "uint256",
          "name": "",
          "type": "uint256"
        }
      ],
      "name": "orderList",
      "outputs": [
        {
          "internalType": "uint256",
          "name": "orderID",
          "type": "uint256"
        },
        {
          "internalType": "uint256",
          "name": "productID",
          "type": "uint256"
        },
        {
          "internalType": "uint256",
          "name": "count",
          "type": "uint256"
        },
        {
          "internalType": "uint256",
          "name": "amount",
          "type": "uint256"
        },
        {
          "internalType": "address payable",
          "name": "buyer",
          "type": "address"
        },
        {
          "internalType": "uint256",
          "name": "status",
          "type": "uint256"
        }
      ],
      "payable": false,
      "stateMutability": "view",
      "type": "function"
    },
    {
      "constant": true,
      "inputs": [
        {
          "internalType": "address",
          "name": "",
          "type": "address"
        },
        {
          "internalType": "uint256",
          "name": "",
          "type": "uint256"
        }
      ],
      "name": "sellerList",
      "outputs": [
        {
          "internalType": "uint256",
          "name": "",
          "type": "uint256"
        }
      ],
      "payable": false,
      "stateMutability": "view",
      "type": "function"
    },
    {
      "constant": true,
      "inputs": [],
      "name": "getbalance",
      "outputs": [
        {
          "internalType": "uint256",
          "name": "",
          "type": "uint256"
        }
      ],
      "payable": false,
      "stateMutability": "view",
      "type": "function"
    },
    {
      "constant": true,
      "inputs": [
        {
          "internalType": "uint256",
          "name": "_orderNumber",
          "type": "uint256"
        }
      ],
      "name": "orderExist",
      "outputs": [
        {
          "internalType": "bool",
          "name": "",
          "type": "bool"
        }
      ],
      "payable": false,
      "stateMutability": "view",
      "type": "function"
    },
    {
      "constant": false,
      "inputs": [
        {
          "internalType": "uint256",
          "name": "_productID",
          "type": "uint256"
        },
        {
          "internalType": "uint256",
          "name": "_count",
          "type": "uint256"
        }
      ],
      "name": "placeOrder",
      "outputs": [
        {
          "internalType": "bool",
          "name": "",
          "type": "bool"
        }
      ],
      "payable": true,
      "stateMutability": "payable",
      "type": "function"
    },
    {
      "constant": false,
      "inputs": [
        {
          "internalType": "uint256",
          "name": "_orderNumber",
          "type": "uint256"
        }
      ],
      "name": "purchaseComplete",
      "outputs": [],
      "payable": false,
      "stateMutability": "nonpayable",
      "type": "function"
    },
    {
      "constant": false,
      "inputs": [
        {
          "internalType": "uint256",
          "name": "_orderNumber",
          "type": "uint256"
        }
      ],
      "name": "purchaseFailed",
      "outputs": [],
      "payable": false,
      "stateMutability": "nonpayable",
      "type": "function"
    },
    {
      "constant": true,
      "inputs": [],
      "name": "getActiveSellerOrders",
      "outputs": [
        {
          "internalType": "uint256[]",
          "name": "activeOrders",
          "type": "uint256[]"
        }
      ],
      "payable": false,
      "stateMutability": "view",
      "type": "function"
    }
  ],
  "bytecode": "0x60806040526103e860045534801561001657600080fd5b506040516115043803806115048339818101604052602081101561003957600080fd5b8101908080519060200190929190505050806000806101000a81548173ffffffffffffffffffffffffffffffffffffffff021916908373ffffffffffffffffffffffffffffffffffffffff1602179055505061146a8061009a6000396000f3fe6080604052600436106100865760003560e01c806376f75e7f1161005957806376f75e7f146101cc5780637f11c6b21461026a578063843f61e2146102d9578063b4ad5d6714610329578063d5d3c0571461037c57610086565b8063386092a61461008b57806343656b58146100c65780634d9b3d5d146101325780636e881c9a1461015d575b600080fd5b34801561009757600080fd5b506100c4600480360360208110156100ae57600080fd5b81019080803590602001909291905050506103b7565b005b3480156100d257600080fd5b506100db610674565b6040518080602001828103825283818151815260200191508051906020019060200280838360005b8381101561011e578082015181840152602081019050610103565b505050509050019250505060405180910390f35b34801561013e57600080fd5b506101476107c6565b6040518082815260200191505060405180910390f35b34801561016957600080fd5b506101b66004803603604081101561018057600080fd5b81019080803573ffffffffffffffffffffffffffffffffffffffff169060200190929190803590602001909291905050506107ce565b6040518082815260200191505060405180910390f35b3480156101d857600080fd5b50610205600480360360208110156101ef57600080fd5b81019080803590602001909291905050506107fc565b604051808781526020018681526020018581526020018481526020018373ffffffffffffffffffffffffffffffffffffffff1673ffffffffffffffffffffffffffffffffffffffff168152602001828152602001965050505050505060405180910390f35b34801561027657600080fd5b506102c36004803603604081101561028d57600080fd5b81019080803573ffffffffffffffffffffffffffffffffffffffff16906020019092919080359060200190929190505050610858565b6040518082815260200191505060405180910390f35b61030f600480360360408110156102ef57600080fd5b810190808035906020019092919080359060200190929190505050610886565b604051808215151515815260200191505060405180910390f35b34801561033557600080fd5b506103626004803603602081101561034c57600080fd5b81019080803590602001909291905050506110d8565b604051808215151515815260200191505060405180910390f35b34801561038857600080fd5b506103b56004803603602081101561039f57600080fd5b810190808035906020019092919050505061110b565b005b6103c0816110d8565b610432576040517f08c379a00000000000000000000000000000000000000000000000000000000081526004018080602001828103825260148152602001807f4f7264657220646f6573206e6f7420657869737400000000000000000000000081525060200191505060405180910390fd5b60656001600083815260200190815260200160002060050154146104be576040517f08c379a00000000000000000000000000000000000000000000000000000000081526004018080602001828103825260108152602001807f4f72646572204e6f74204163746976650000000000000000000000000000000081525060200191505060405180910390fd5b6104c66113e9565b600160008381526020019081526020016000206040518060c0016040529081600082015481526020016001820154815260200160028201548152602001600382015481526020016004820160009054906101000a900473ffffffffffffffffffffffffffffffffffffffff1673ffffffffffffffffffffffffffffffffffffffff1673ffffffffffffffffffffffffffffffffffffffff16815260200160058201548152505090506000809054906101000a900473ffffffffffffffffffffffffffffffffffffffff1673ffffffffffffffffffffffffffffffffffffffff16637fa02297826020015183604001516040518363ffffffff1660e01b81526004018083815260200182815260200192505050600060405180830381600087803b1580156105f257600080fd5b505af1158015610606573d6000803e3d6000fd5b50505050806080015173ffffffffffffffffffffffffffffffffffffffff166108fc82606001519081150290604051600060405180830381858888f19350505050158015610658573d6000803e3d6000fd5b5060676001600084815260200190815260200160002050505050565b6060600080905060008090505b600360003373ffffffffffffffffffffffffffffffffffffffff1673ffffffffffffffffffffffffffffffffffffffff168152602001908152602001600020805490508110156107c157606560016000600360003373ffffffffffffffffffffffffffffffffffffffff1673ffffffffffffffffffffffffffffffffffffffff168152602001908152602001600020848154811061071b57fe5b906000526020600020015481526020019081526020016000206005015414156107b457600360003373ffffffffffffffffffffffffffffffffffffffff1673ffffffffffffffffffffffffffffffffffffffff168152602001908152602001600020818154811061078857fe5b906000526020600020015483838151811061079f57fe5b60200260200101818152505081806001019250505b8080600101915050610681565b505090565b600047905090565b600360205281600052604060002081815481106107e757fe5b90600052602060002001600091509150505481565b60016020528060005260406000206000915090508060000154908060010154908060020154908060030154908060040160009054906101000a900473ffffffffffffffffffffffffffffffffffffffff16908060050154905086565b6002602052816000526040600020818154811061087157fe5b90600052602060002001600091509150505481565b60008060009054906101000a900473ffffffffffffffffffffffffffffffffffffffff1673ffffffffffffffffffffffffffffffffffffffff1663e77a67ea846040518263ffffffff1660e01b81526004018082815260200191505060206040518083038186803b1580156108fa57600080fd5b505afa15801561090e573d6000803e3d6000fd5b505050506040513d602081101561092457600080fd5b81019080805190602001909291905050506109a7576040517f08c379a00000000000000000000000000000000000000000000000000000000081526004018080602001828103825260168152602001807f496e76616c69642070726f64756374206e756d6265720000000000000000000081525060200191505060405180910390fd5b6000809054906101000a900473ffffffffffffffffffffffffffffffffffffffff1673ffffffffffffffffffffffffffffffffffffffff1663be91dc0f84336040518363ffffffff1660e01b8152600401808381526020018273ffffffffffffffffffffffffffffffffffffffff1673ffffffffffffffffffffffffffffffffffffffff1681526020019250505060206040518083038186803b158015610a4d57600080fd5b505afa158015610a61573d6000803e3d6000fd5b505050506040513d6020811015610a7757600080fd5b810190808051906020019092919050505015610afb576040517f08c379a00000000000000000000000000000000000000000000000000000000081526004018080602001828103825260168152602001807f42757965722063616e6e6f742062652053656c6c65720000000000000000000081525060200191505060405180910390fd5b6000809054906101000a900473ffffffffffffffffffffffffffffffffffffffff1673ffffffffffffffffffffffffffffffffffffffff1663ad4891ee846040518263ffffffff1660e01b81526004018082815260200191505060206040518083038186803b158015610b6d57600080fd5b505afa158015610b81573d6000803e3d6000fd5b505050506040513d6020811015610b9757600080fd5b8101908080519060200190929190505050821115610c1d576040517f08c379a00000000000000000000000000000000000000000000000000000000081526004018080602001828103825260208152602001807f537570706c7920696e73756666696369656e7420666f7220707572636861736581525060200191505060405180910390fd5b816000809054906101000a900473ffffffffffffffffffffffffffffffffffffffff1673ffffffffffffffffffffffffffffffffffffffff1663e7bf7dfc856040518263ffffffff1660e01b81526004018082815260200191505060206040518083038186803b158015610c9057600080fd5b505afa158015610ca4573d6000803e3d6000fd5b505050506040513d6020811015610cba57600080fd5b8101908080519060200190929190505050023411610d40576040517f08c379a000000000000000000000000000000000000000000000000000000000815260040180806020018281038252601e8152602001807f46756e6420696e73756666696369656e7420666f72207075726368617365000081525060200191505060405180910390fd5b6000606590506004600081548092919060010191905055506040518060c0016040528060045481526020018581526020018481526020013481526020013373ffffffffffffffffffffffffffffffffffffffff168152602001828152506001600060045481526020019081526020016000206000820151816000015560208201518160010155604082015181600201556060820151816003015560808201518160040160006101000a81548173ffffffffffffffffffffffffffffffffffffffff021916908373ffffffffffffffffffffffffffffffffffffffff16021790555060a08201518160050155905050600260003373ffffffffffffffffffffffffffffffffffffffff1673ffffffffffffffffffffffffffffffffffffffff1681526020019081526020016000206004549080600181540180825580915050906001820390600052602060002001600090919290919091505550600360008060009054906101000a900473ffffffffffffffffffffffffffffffffffffffff1673ffffffffffffffffffffffffffffffffffffffff166388c8b591876040518263ffffffff1660e01b81526004018082815260200191505060206040518083038186803b158015610f0f57600080fd5b505afa158015610f23573d6000803e3d6000fd5b505050506040513d6020811015610f3957600080fd5b810190808051906020019092919050505073ffffffffffffffffffffffffffffffffffffffff1673ffffffffffffffffffffffffffffffffffffffff16815260200190815260200160002060045490806001815401808255809150509060018203906000526020600020016000909192909190915055506000809054906101000a900473ffffffffffffffffffffffffffffffffffffffff1673ffffffffffffffffffffffffffffffffffffffff1663ad04368885856040518363ffffffff1660e01b81526004018083815260200182815260200192505050600060405180830381600087803b15801561102c57600080fd5b505af1158015611040573d6000803e3d6000fd5b505050507f3a533c274dd7981b90350dd7738599df07187ae4de0beced5406f7afbd14f64f6004548585343386604051808781526020018681526020018581526020018481526020018373ffffffffffffffffffffffffffffffffffffffff1673ffffffffffffffffffffffffffffffffffffffff168152602001828152602001965050505050505060405180910390a15092915050565b600080600160008481526020019081526020016000206000015411156111015760019050611106565b600090505b919050565b611114816110d8565b611186576040517f08c379a00000000000000000000000000000000000000000000000000000000081526004018080602001828103825260148152602001807f4f7264657220646f6573206e6f7420657869737400000000000000000000000081525060200191505060405180910390fd5b6065600160008381526020019081526020016000206005015414611212576040517f08c379a00000000000000000000000000000000000000000000000000000000081526004018080602001828103825260108152602001807f4f72646572204e6f74204163746976650000000000000000000000000000000081525060200191505060405180910390fd5b61121a6113e9565b600160008381526020019081526020016000206040518060c0016040529081600082015481526020016001820154815260200160028201548152602001600382015481526020016004820160009054906101000a900473ffffffffffffffffffffffffffffffffffffffff1673ffffffffffffffffffffffffffffffffffffffff1673ffffffffffffffffffffffffffffffffffffffff168152602001600582015481525050905060008060009054906101000a900473ffffffffffffffffffffffffffffffffffffffff1673ffffffffffffffffffffffffffffffffffffffff166388c8b59183602001516040518263ffffffff1660e01b81526004018082815260200191505060206040518083038186803b15801561133a57600080fd5b505afa15801561134e573d6000803e3d6000fd5b505050506040513d602081101561136457600080fd5b810190808051906020019092919050505090508073ffffffffffffffffffffffffffffffffffffffff166108fc83606001519081150290604051600060405180830381858888f193505050501580156113c1573d6000803e3d6000fd5b50606660016000858152602001908152602001600020505060018260a0018181525050505050565b6040518060c0016040528060008152602001600081526020016000815260200160008152602001600073ffffffffffffffffffffffffffffffffffffffff16815260200160008152509056fea265627a7a72315820dd62e979d0499437fc8dd0f024bda6d6103f425055f95c97b4536083dfdc17f964736f6c63430005100032",
  "source": "pragma solidity ^0.5.0;\r\n\r\nimport './AddProduct.sol';\r\n\r\ncontract Shopping {\r\n    AddProduct productContract;                 // contract instance\r\n    mapping(uint => Order) public orderList;            // All orders\r\n    mapping(address => uint[]) public buyerList;     // For Buyer\r\n    mapping(address => uint[]) public sellerList;       // For Seller\r\n    uint orderNumber = 1000;                   // For Order Number\r\n    struct Order{\r\n        uint orderID;\r\n        uint productID;\r\n        uint count;\r\n        uint amount;\r\n        address payable buyer;\r\n        uint status;\r\n    }\r\n\r\n    constructor(address _addr) public{\r\n        productContract = AddProduct(_addr);\r\n    }\r\n\r\n    event orderPlaced(\r\n        uint orderID,\r\n        uint productID,\r\n        uint count,\r\n        uint amount,\r\n        address buyer,\r\n        uint status\r\n    );\r\n    function getbalance() public view returns(uint){\r\n        return address(this).balance;\r\n    }\r\n\r\n    function orderExist(uint _orderNumber) public view returns (bool){\r\n        if (orderList[_orderNumber].orderID > 0)\r\n            return true;\r\n        return false;\r\n    }\r\n\r\n    function placeOrder(uint _productID,uint _count) public payable returns (bool){\r\n        require(productContract.productExist(_productID),\"Invalid product number\");\r\n        require(!productContract.isSeller(_productID,msg.sender),\"Buyer cannot be Seller\");\r\n        require(_count <= productContract.getProductCount(_productID) ,\"Supply insufficient for purchase\");\r\n        require(msg.value > productContract.getProductPrice(_productID) * _count,\"Fund insufficient for purchase\");\r\n        \r\n        uint _status = 101;\r\n        orderNumber ++;\r\n        orderList[orderNumber] = Order(orderNumber, _productID, _count, msg.value,msg.sender, _status);\r\n        buyerList[msg.sender].push(orderNumber);\r\n        sellerList[productContract.getProductSeller(_productID)].push(orderNumber);\r\n        productContract.decreaseCount(_productID,_count);\r\n        emit orderPlaced(orderNumber,_productID,_count,msg.value,msg.sender,_status);\r\n    }\r\n\r\n    function purchaseComplete(uint _orderNumber) public {\r\n        require(orderExist(_orderNumber),\"Order does not exist\");\r\n        require(orderList[_orderNumber].status == 101,\"Order Not Active\");\r\n        Order memory currentOrder = orderList[_orderNumber];\r\n        address payable _seller = productContract.getProductSeller(currentOrder.productID);\r\n        _seller.transfer(currentOrder.amount);\r\n        orderList[_orderNumber].status == 102;\r\n        currentOrder.status = 1;\r\n    }\r\n    \r\n    function purchaseFailed(uint _orderNumber) public{\r\n        require(orderExist(_orderNumber),\"Order does not exist\");\r\n        require(orderList[_orderNumber].status == 101,\"Order Not Active\");\r\n        Order memory currentOrder = orderList[_orderNumber];\r\n        productContract.increaseCount(currentOrder.productID,currentOrder.count);\r\n        currentOrder.buyer.transfer(currentOrder.amount);\r\n        orderList[_orderNumber].status == 103;\r\n    }\r\n    \r\n    function getActiveSellerOrders() public view returns (uint[] memory activeOrders) {\r\n        uint j =0;\r\n        for(uint i =0; i<sellerList[msg.sender].length;i++){\r\n            if (orderList[sellerList[msg.sender][i]].status == 101){\r\n                activeOrders[j]=(sellerList[msg.sender][i]);\r\n                j ++;\r\n            }\r\n        }\r\n    }\r\n    \r\n}\r\n",
  "sourcePath": "E:\\Blockchain\\Shopchain\\contracts\\Shopping.sol",
  "compiler": {
    "name": "solc",
    "version": "0.5.16+commit.9c3226ce.Emscripten.clang"
  },
  "schemaVersion": "3.1.0",
  "updatedAt": "2020-05-10T07:53:08.129Z",
  "networkType": "ethereum",
  "devdoc": {
    "methods": {}
  },
  "userdoc": {
    "methods": {}
  }
}